:020000040000FA
:060000000A128A11FC2F18
:100F440083120313081388170F30860088130D309B
:100F5400F000F00BAB2F8312031388170800F10085
:100F64008312031308177108860088130D30F000EC
:100F7400F00BBA2F83120313881708008316031388
:100F84008813081383160317890183160313860134
:100F94008312031386018817081308000A128A11A2
:100FA400C0270A128A110A128A11A2270A128A1168
:100FB40053300A128A11B1270A128A1145300A12D3
:100FC4008A11B1270A128A114E300A128A11B127E6
:100FD4000A128A1141300A128A11B1270A128A119F
:100FE40049300A128A11B1270A128A11F82F0A12FB
:0C0FF4008A11002883010A128A11D02FF4
:04400E00D4E0FFFFFC
:00000001FF
