:020000040000FA
:100000000A128A11EE2FFF1B0D2883137F18831706
:100010000008840A0319FF0A080000308A00040857
:10002000840A820700343134323433344134343476
:1000300035343634423437343834393443342A345E
:10004000303423344434533445344E344134493409
:0200500000347A
:100BC4005434653463346C34613420342034203438
:100BD4000034F0308316031386008316031789014B
:100BE400831603138113FF309500FF308312031320
:100BF40086000800F5007508F40006300310F40DB3
:100C0400FF3E031D002E730874077F39803E0A12CD
:100C14008A116E270A128A1108007E088A007F084A
:100C240082000A128A110F260A128A118000840A8D
:100C340004087D0603190034FF0A0319FE0A132E63
:100C440083160313081188110812881208138813D5
:100C540083120313881528300A128A116E270A1288
:100C64008A110C300A128A116E270A128A11013075
:100C74000A128A116E270A128A1102300A128A1184
:100C84006E270A128A110800F20083120313081552
:100C94007208F00004300310F00CFF3E031D4D2ECB
:100CA4007008F100F10E080871060F39710688000A
:100CB40088110D30F000F00B5D2E8312031388159C
:100CC400081572080F39F000F00E080870060F3985
:100CD4007006880088110D30F000F00B6F2E83121F
:100CE400031388150800FB007608F9007908FA0058
:100CF4007608F9007908F3007B080A128A11FC25AA
:100D04000A128A119E2E780883120313FF007708B3
:100D140084000A128A1103200A128A110A128A1103
:100D240046260A128A110130F7070318F80A01301F
:100D3400F9007908FA079E2E780883120313FF003E
:100D4400770884000A128A1103200A128A11003AD1
:100D5400031DAD2EAE2E852EAF2E08002430840048
:100D64002D3083120313A0000408A1000930A2004F
:100D74002008840083130008A300A00A210884002B
:100D840023088000A10AA20BBA2E0A128A11222675
:100D94000A128A110A128A11EB250A128A11F60123
:100DA4001130F7008030F80000300A128A117526DD
:100DB4000A128A11DD2E0A128A1101270A128A11D7
:100DC40083120313A0002008AB002B08031DEB2E95
:100DD400EC2EF12E2030A0002008AB00F12EF601FD
:100DE4002430F7000030F80001300A128A11752609
:100DF4000A128A11DD2EDD2E0A128A110028F7014B
:100E0400F80104307802031C082F092F0B2F6B2FD5
:100E14006B2F0130F000780A112F0310F00DFF3E04
:100E2400031D0F2F7008FF3A831203138600F90184
:100E340004307902031C1F2F202F222F602F602FD4
:100E44000609F000F101F109790AF2001030F3000B
:100E54000030F400302F0310F30DF40DF20B2D2F9E
:100E640070087305F50071087405F60075087604BA
:100E740003193D2F3E2F552F7808F0000230031040
:100E8400F00DFF3E031D412F01307007F10079087A
:100E9400710784000A128A110D200A128A11F200C5
:100EA4007208F700552F0130F0007008F90704307C
:100EB4007902031C5E2F5F2F222F602F0130F00078
:100EC4007008F80704307802031C692F6A2F0B2F6F
:100ED4006B2F77086D2F0800F2008312031308119B
:100EE4007208F00004300310F00CFF3E031D752F50
:100EF4007008F100F10E080871060F3971068800B8
:100F0400881172030319872F882F8F2F02307206DE
:100F1400031D8D2F8E2F992F8F2F0330F1009730C3
:100F2400F000F00B932FF10B932F982F9E2F0D3081
:100F3400F000F00B9B2F9E2F831203138815F030C3
:100F44007205F00020307006031DA92FAA2FC42FAC
:100F540008117208F00004300310F00CFF3E031D6A
:100F6400AE2F7008F100F10E080871060F397106F2
:100F7400880088110D30F000F00BBE2F831203138C
:100F84008815C42F081172080F39F000F00E0808F4
:100F940070060F3970068800881172030319D32F65
:100FA400D42FDB2F02307206031DD92FDA2FE52F41
:100FB400DB2F0330F1009730F000F00BDF2FF10B43
:100FC400DF2FE42FEA2F0D30F000F00BE72FEA2F8C
:100FD400831203138815080083133630FD0005308F
:100FE400FE00E230FF002D3084000A128A1113261D
:0C0FF4000A128A1183010A128A11B02E21
:04400E00D4E0FFFFFC
:00000001FF
